{
  "contractName": "SmartContract",
  "abi": [
    {
      "inputs": [
        {
          "internalType": "string",
          "name": "_initBaseURI",
          "type": "string"
        },
        {
          "internalType": "uint256",
          "name": "_price",
          "type": "uint256"
        }
      ],
      "stateMutability": "nonpayable",
      "type": "constructor"
    },
    {
      "anonymous": false,
      "inputs": [
        {
          "indexed": true,
          "internalType": "address",
          "name": "owner",
          "type": "address"
        },
        {
          "indexed": true,
          "internalType": "address",
          "name": "approved",
          "type": "address"
        },
        {
          "indexed": true,
          "internalType": "uint256",
          "name": "tokenId",
          "type": "uint256"
        }
      ],
      "name": "Approval",
      "type": "event"
    },
    {
      "anonymous": false,
      "inputs": [
        {
          "indexed": true,
          "internalType": "address",
          "name": "owner",
          "type": "address"
        },
        {
          "indexed": true,
          "internalType": "address",
          "name": "operator",
          "type": "address"
        },
        {
          "indexed": false,
          "internalType": "bool",
          "name": "approved",
          "type": "bool"
        }
      ],
      "name": "ApprovalForAll",
      "type": "event"
    },
    {
      "anonymous": false,
      "inputs": [
        {
          "indexed": true,
          "internalType": "address",
          "name": "previousOwner",
          "type": "address"
        },
        {
          "indexed": true,
          "internalType": "address",
          "name": "newOwner",
          "type": "address"
        }
      ],
      "name": "OwnershipTransferred",
      "type": "event"
    },
    {
      "anonymous": false,
      "inputs": [
        {
          "indexed": true,
          "internalType": "address",
          "name": "from",
          "type": "address"
        },
        {
          "indexed": true,
          "internalType": "address",
          "name": "to",
          "type": "address"
        },
        {
          "indexed": true,
          "internalType": "uint256",
          "name": "tokenId",
          "type": "uint256"
        }
      ],
      "name": "Transfer",
      "type": "event"
    },
    {
      "inputs": [
        {
          "internalType": "address",
          "name": "to",
          "type": "address"
        },
        {
          "internalType": "uint256",
          "name": "tokenId",
          "type": "uint256"
        }
      ],
      "name": "approve",
      "outputs": [],
      "stateMutability": "nonpayable",
      "type": "function"
    },
    {
      "inputs": [
        {
          "internalType": "address",
          "name": "owner",
          "type": "address"
        }
      ],
      "name": "balanceOf",
      "outputs": [
        {
          "internalType": "uint256",
          "name": "",
          "type": "uint256"
        }
      ],
      "stateMutability": "view",
      "type": "function"
    },
    {
      "inputs": [
        {
          "internalType": "uint256",
          "name": "tokenId",
          "type": "uint256"
        }
      ],
      "name": "getApproved",
      "outputs": [
        {
          "internalType": "address",
          "name": "",
          "type": "address"
        }
      ],
      "stateMutability": "view",
      "type": "function"
    },
    {
      "inputs": [
        {
          "internalType": "address",
          "name": "owner",
          "type": "address"
        },
        {
          "internalType": "address",
          "name": "operator",
          "type": "address"
        }
      ],
      "name": "isApprovedForAll",
      "outputs": [
        {
          "internalType": "bool",
          "name": "",
          "type": "bool"
        }
      ],
      "stateMutability": "view",
      "type": "function"
    },
    {
      "inputs": [],
      "name": "maxMintAmount",
      "outputs": [
        {
          "internalType": "uint256",
          "name": "",
          "type": "uint256"
        }
      ],
      "stateMutability": "view",
      "type": "function"
    },
    {
      "inputs": [],
      "name": "maxSupply",
      "outputs": [
        {
          "internalType": "uint256",
          "name": "",
          "type": "uint256"
        }
      ],
      "stateMutability": "view",
      "type": "function"
    },
    {
      "inputs": [],
      "name": "name",
      "outputs": [
        {
          "internalType": "string",
          "name": "",
          "type": "string"
        }
      ],
      "stateMutability": "view",
      "type": "function"
    },
    {
      "inputs": [],
      "name": "owner",
      "outputs": [
        {
          "internalType": "address",
          "name": "",
          "type": "address"
        }
      ],
      "stateMutability": "view",
      "type": "function"
    },
    {
      "inputs": [
        {
          "internalType": "uint256",
          "name": "tokenId",
          "type": "uint256"
        }
      ],
      "name": "ownerOf",
      "outputs": [
        {
          "internalType": "address",
          "name": "",
          "type": "address"
        }
      ],
      "stateMutability": "view",
      "type": "function"
    },
    {
      "inputs": [],
      "name": "renounceOwnership",
      "outputs": [],
      "stateMutability": "nonpayable",
      "type": "function"
    },
    {
      "inputs": [
        {
          "internalType": "address",
          "name": "from",
          "type": "address"
        },
        {
          "internalType": "address",
          "name": "to",
          "type": "address"
        },
        {
          "internalType": "uint256",
          "name": "tokenId",
          "type": "uint256"
        }
      ],
      "name": "safeTransferFrom",
      "outputs": [],
      "stateMutability": "nonpayable",
      "type": "function"
    },
    {
      "inputs": [
        {
          "internalType": "address",
          "name": "from",
          "type": "address"
        },
        {
          "internalType": "address",
          "name": "to",
          "type": "address"
        },
        {
          "internalType": "uint256",
          "name": "tokenId",
          "type": "uint256"
        },
        {
          "internalType": "bytes",
          "name": "_data",
          "type": "bytes"
        }
      ],
      "name": "safeTransferFrom",
      "outputs": [],
      "stateMutability": "nonpayable",
      "type": "function"
    },
    {
      "inputs": [
        {
          "internalType": "address",
          "name": "operator",
          "type": "address"
        },
        {
          "internalType": "bool",
          "name": "approved",
          "type": "bool"
        }
      ],
      "name": "setApprovalForAll",
      "outputs": [],
      "stateMutability": "nonpayable",
      "type": "function"
    },
    {
      "inputs": [
        {
          "internalType": "bytes4",
          "name": "interfaceId",
          "type": "bytes4"
        }
      ],
      "name": "supportsInterface",
      "outputs": [
        {
          "internalType": "bool",
          "name": "",
          "type": "bool"
        }
      ],
      "stateMutability": "view",
      "type": "function"
    },
    {
      "inputs": [],
      "name": "symbol",
      "outputs": [
        {
          "internalType": "string",
          "name": "",
          "type": "string"
        }
      ],
      "stateMutability": "view",
      "type": "function"
    },
    {
      "inputs": [
        {
          "internalType": "uint256",
          "name": "index",
          "type": "uint256"
        }
      ],
      "name": "tokenByIndex",
      "outputs": [
        {
          "internalType": "uint256",
          "name": "",
          "type": "uint256"
        }
      ],
      "stateMutability": "view",
      "type": "function"
    },
    {
      "inputs": [
        {
          "internalType": "address",
          "name": "owner",
          "type": "address"
        },
        {
          "internalType": "uint256",
          "name": "index",
          "type": "uint256"
        }
      ],
      "name": "tokenOfOwnerByIndex",
      "outputs": [
        {
          "internalType": "uint256",
          "name": "",
          "type": "uint256"
        }
      ],
      "stateMutability": "view",
      "type": "function"
    },
    {
      "inputs": [],
      "name": "totalSupply",
      "outputs": [
        {
          "internalType": "uint256",
          "name": "",
          "type": "uint256"
        }
      ],
      "stateMutability": "view",
      "type": "function"
    },
    {
      "inputs": [
        {
          "internalType": "address",
          "name": "from",
          "type": "address"
        },
        {
          "internalType": "address",
          "name": "to",
          "type": "address"
        },
        {
          "internalType": "uint256",
          "name": "tokenId",
          "type": "uint256"
        }
      ],
      "name": "transferFrom",
      "outputs": [],
      "stateMutability": "nonpayable",
      "type": "function"
    },
    {
      "inputs": [
        {
          "internalType": "address",
          "name": "newOwner",
          "type": "address"
        }
      ],
      "name": "transferOwnership",
      "outputs": [],
      "stateMutability": "nonpayable",
      "type": "function"
    },
    {
      "inputs": [
        {
          "internalType": "address",
          "name": "_to",
          "type": "address"
        },
        {
          "internalType": "uint256",
          "name": "_mintAmount",
          "type": "uint256"
        }
      ],
      "name": "mintTruck",
      "outputs": [],
      "stateMutability": "payable",
      "type": "function"
    },
    {
      "inputs": [
        {
          "internalType": "uint256",
          "name": "tokenId",
          "type": "uint256"
        }
      ],
      "name": "tokenURI",
      "outputs": [
        {
          "internalType": "string",
          "name": "",
          "type": "string"
        }
      ],
      "stateMutability": "view",
      "type": "function"
    },
    {
      "inputs": [
        {
          "internalType": "address",
          "name": "wallet",
          "type": "address"
        }
      ],
      "name": "isTruckHolder",
      "outputs": [
        {
          "internalType": "bool",
          "name": "",
          "type": "bool"
        }
      ],
      "stateMutability": "view",
      "type": "function"
    },
    {
      "inputs": [
        {
          "internalType": "address",
          "name": "wallet",
          "type": "address"
        }
      ],
      "name": "trucksOwnedByAddress",
      "outputs": [
        {
          "internalType": "uint256[]",
          "name": "",
          "type": "uint256[]"
        }
      ],
      "stateMutability": "view",
      "type": "function"
    },
    {
      "inputs": [
        {
          "internalType": "string",
          "name": "baseURI",
          "type": "string"
        }
      ],
      "name": "setBaseURI",
      "outputs": [],
      "stateMutability": "nonpayable",
      "type": "function"
    },
    {
      "inputs": [
        {
          "internalType": "uint256",
          "name": "_newPrice",
          "type": "uint256"
        }
      ],
      "name": "setPrice",
      "outputs": [],
      "stateMutability": "nonpayable",
      "type": "function"
    },
    {
      "inputs": [],
      "name": "withdraw",
      "outputs": [],
      "stateMutability": "payable",
      "type": "function"
    },
    {
      "inputs": [
        {
          "internalType": "contract IERC20",
          "name": "token",
          "type": "address"
        }
      ],
      "name": "withdrawERCToken",
      "outputs": [],
      "stateMutability": "nonpayable",
      "type": "function"
    }
  ],
  "bytecode": "0x6080604052612710600d55600a600e553480156200001c57600080fd5b506040516200278d3803806200278d8339810160408190526200003f91620002aa565b6040805180820182526012815271556e69636f726e204d696c6b20547275636b60701b60208083019182528351808501909452600a845269554e494d2d545255434b60b01b9084015281519192916200009b9160009162000204565b508051620000b190600190602084019062000204565b505050620000ce620000c8620000ec60201b60201c565b620000f0565b620000d98262000142565b620000e481620001aa565b505062000409565b3390565b600a80546001600160a01b038381166001600160a01b0319831681179093556040519116919082907f8be0079c531659141344cd1fd0a4f28419497f9722a3daafe3b4186f6b6457e090600090a35050565b6200014c620000ec565b6001600160a01b03166200015f620001f5565b6001600160a01b031614620001915760405162461bcd60e51b8152600401620001889062000381565b60405180910390fd5b8051620001a690600b90602084019062000204565b5050565b620001b4620000ec565b6001600160a01b0316620001c7620001f5565b6001600160a01b031614620001f05760405162461bcd60e51b8152600401620001889062000381565b600c55565b600a546001600160a01b031690565b8280546200021290620003b6565b90600052602060002090601f01602090048101928262000236576000855562000281565b82601f106200025157805160ff191683800117855562000281565b8280016001018555821562000281579182015b828111156200028157825182559160200191906001019062000264565b506200028f92915062000293565b5090565b5b808211156200028f576000815560010162000294565b60008060408385031215620002bd578182fd5b82516001600160401b0380821115620002d4578384fd5b818501915085601f830112620002e8578384fd5b815181811115620002fd57620002fd620003f3565b6040516020601f8301601f1916820181018481118382101715620003255762000325620003f3565b60405282825284830181018910156200033c578687fd5b8693505b828410156200035f578484018101518285018201529283019262000340565b828411156200037057868184840101525b969096015195979596505050505050565b6020808252818101527f4f776e61626c653a2063616c6c6572206973206e6f7420746865206f776e6572604082015260600190565b600281046001821680620003cb57607f821691505b60208210811415620003ed57634e487b7160e01b600052602260045260246000fd5b50919050565b634e487b7160e01b600052604160045260246000fd5b61237480620004196000396000f3fe6080604052600436106101b75760003560e01c80636352211e116100ec578063b88d4fde1161008a578063d5abeb0111610064578063d5abeb0114610494578063e985e9c5146104a9578063f2fde38b146104c9578063fc921d9e146104e9576101b7565b8063b88d4fde14610434578063c87b56dd14610454578063cc30094d14610474576101b7565b80638da5cb5b116100c65780638da5cb5b146103ca57806391b7f5ed146103df57806395d89b41146103ff578063a22cb46514610414576101b7565b80636352211e1461037557806370a0823114610395578063715018a6146103b5576101b7565b80632f745c591161015957806342842e0e1161013357806342842e0e146103025780634f6ccce71461032257806355f804b31461034257806362015f7114610362576101b7565b80632f745c59146102ba5780633ccfd60b146102da5780633f9794c5146102e2576101b7565b8063095ea7b311610195578063095ea7b31461024157806318160ddd14610263578063239c70ae1461028557806323b872dd1461029a576101b7565b806301ffc9a7146101bc57806306fdde03146101f2578063081812fc14610214575b600080fd5b3480156101c857600080fd5b506101dc6101d7366004611a63565b610516565b6040516101e99190611c1a565b60405180910390f35b3480156101fe57600080fd5b50610207610543565b6040516101e99190611c25565b34801561022057600080fd5b5061023461022f366004611ae1565b6105d5565b6040516101e99190611b6c565b34801561024d57600080fd5b5061026161025c366004611a1c565b610621565b005b34801561026f57600080fd5b506102786106b9565b6040516101e991906121c2565b34801561029157600080fd5b506102786106bf565b3480156102a657600080fd5b506102616102b5366004611932565b6106c5565b3480156102c657600080fd5b506102786102d5366004611a1c565b6106fd565b61026161074f565b3480156102ee57600080fd5b506101dc6102fd3660046118de565b6107c0565b34801561030e57600080fd5b5061026161031d366004611932565b6107d3565b34801561032e57600080fd5b5061027861033d366004611ae1565b6107ee565b34801561034e57600080fd5b5061026161035d366004611a9b565b610849565b610261610370366004611a1c565b61089f565b34801561038157600080fd5b50610234610390366004611ae1565b61097a565b3480156103a157600080fd5b506102786103b03660046118de565b6109af565b3480156103c157600080fd5b506102616109f3565b3480156103d657600080fd5b50610234610a3e565b3480156103eb57600080fd5b506102616103fa366004611ae1565b610a4d565b34801561040b57600080fd5b50610207610a91565b34801561042057600080fd5b5061026161042f3660046119ef565b610aa0565b34801561044057600080fd5b5061026161044f366004611972565b610b6e565b34801561046057600080fd5b5061020761046f366004611ae1565b610ba7565b34801561048057600080fd5b5061026161048f3660046118de565b610c17565b3480156104a057600080fd5b50610278610d58565b3480156104b557600080fd5b506101dc6104c43660046118fa565b610d5e565b3480156104d557600080fd5b506102616104e43660046118de565b610d8c565b3480156104f557600080fd5b506105096105043660046118de565b610dfa565b6040516101e99190611bd6565b60006001600160e01b0319821663780e9d6360e01b148061053b575061053b82610eb8565b90505b919050565b60606000805461055290612259565b80601f016020809104026020016040519081016040528092919081815260200182805461057e90612259565b80156105cb5780601f106105a0576101008083540402835291602001916105cb565b820191906000526020600020905b8154815290600101906020018083116105ae57829003601f168201915b5050505050905090565b60006105e082610ef8565b6106055760405162461bcd60e51b81526004016105fc90611fe3565b60405180910390fd5b506000908152600460205260409020546001600160a01b031690565b600061062c8261097a565b9050806001600160a01b0316836001600160a01b031614156106605760405162461bcd60e51b81526004016105fc906120ad565b806001600160a01b0316610672610f15565b6001600160a01b0316148061068e575061068e816104c4610f15565b6106aa5760405162461bcd60e51b81526004016105fc90611e50565b6106b48383610f19565b505050565b60085490565b600e5481565b6106d66106d0610f15565b82610f87565b6106f25760405162461bcd60e51b81526004016105fc906120ee565b6106b483838361100c565b6000610708836109af565b82106107265760405162461bcd60e51b81526004016105fc90611c38565b506001600160a01b03919091166000908152600660209081526040808320938352929052205490565b610757610f15565b6001600160a01b0316610768610a3e565b6001600160a01b03161461078e5760405162461bcd60e51b81526004016105fc9061202f565b478061079957600080fd5b60405133904780156108fc02916000818181858888f193505050506107bd57600080fd5b50565b6000806107cc836109af565b1192915050565b6106b483838360405180602001604052806000815250610b6e565b60006107f86106b9565b82106108165760405162461bcd60e51b81526004016105fc9061213f565b6008828154811061083757634e487b7160e01b600052603260045260246000fd5b90600052602060002001549050919050565b610851610f15565b6001600160a01b0316610862610a3e565b6001600160a01b0316146108885760405162461bcd60e51b81526004016105fc9061202f565b805161089b90600b9060208401906117d5565b5050565b3332146108be5760405162461bcd60e51b81526004016105fc90611fac565b600e548111156108e05760405162461bcd60e51b81526004016105fc9061218b565b60006108ea6106b9565b600d549091506108fa83836121cb565b11156109185760405162461bcd60e51b81526004016105fc90611ead565b81600c5461092691906121f7565b3410156109455760405162461bcd60e51b81526004016105fc90611dcd565b60015b828111610974576109628461095d83856121cb565b611139565b8061096c81612294565b915050610948565b50505050565b6000818152600260205260408120546001600160a01b03168061053b5760405162461bcd60e51b81526004016105fc90611f2e565b60006001600160a01b0382166109d75760405162461bcd60e51b81526004016105fc90611ee4565b506001600160a01b031660009081526003602052604090205490565b6109fb610f15565b6001600160a01b0316610a0c610a3e565b6001600160a01b031614610a325760405162461bcd60e51b81526004016105fc9061202f565b610a3c6000611153565b565b600a546001600160a01b031690565b610a55610f15565b6001600160a01b0316610a66610a3e565b6001600160a01b031614610a8c5760405162461bcd60e51b81526004016105fc9061202f565b600c55565b60606001805461055290612259565b610aa8610f15565b6001600160a01b0316826001600160a01b03161415610ad95760405162461bcd60e51b81526004016105fc90611d96565b8060056000610ae6610f15565b6001600160a01b03908116825260208083019390935260409182016000908120918716808252919093529120805460ff191692151592909217909155610b2a610f15565b6001600160a01b03167f17307eab39ab6107e8899845ad3d59bd9653f200f220920489ca2b5937696c3183604051610b629190611c1a565b60405180910390a35050565b610b7f610b79610f15565b83610f87565b610b9b5760405162461bcd60e51b81526004016105fc906120ee565b610974848484846111a5565b6060610bb282610ef8565b610bbb57600080fd5b6000610bc56111d8565b90506000815111610be55760405180602001604052806000815250610c10565b80610bef846111e7565b604051602001610c00929190611b3d565b6040516020818303038152906040525b9392505050565b610c1f610f15565b6001600160a01b0316610c30610a3e565b6001600160a01b031614610c565760405162461bcd60e51b81526004016105fc9061202f565b6040516370a0823160e01b81526000906001600160a01b038316906370a0823190610c85903090600401611b6c565b60206040518083038186803b158015610c9d57600080fd5b505afa158015610cb1573d6000803e3d6000fd5b505050506040513d601f19601f82011682018060405250810190610cd59190611af9565b60405163a9059cbb60e01b81529091506001600160a01b0383169063a9059cbb90610d069033908590600401611bbd565b602060405180830381600087803b158015610d2057600080fd5b505af1158015610d34573d6000803e3d6000fd5b505050506040513d601f19601f820116820180604052508101906106b49190611a47565b600d5481565b6001600160a01b03918216600090815260056020908152604080832093909416825291909152205460ff1690565b610d94610f15565b6001600160a01b0316610da5610a3e565b6001600160a01b031614610dcb5760405162461bcd60e51b81526004016105fc9061202f565b6001600160a01b038116610df15760405162461bcd60e51b81526004016105fc90611cd5565b6107bd81611153565b60606000610e07836109af565b905060008167ffffffffffffffff811115610e3257634e487b7160e01b600052604160045260246000fd5b604051908082528060200260200182016040528015610e5b578160200160208202803683370190505b50905060005b82811015610eb057610e7385826106fd565b828281518110610e9357634e487b7160e01b600052603260045260246000fd5b602090810291909101015280610ea881612294565b915050610e61565b509392505050565b60006001600160e01b031982166380ac58cd60e01b1480610ee957506001600160e01b03198216635b5e139f60e01b145b8061053b575061053b82611302565b6000908152600260205260409020546001600160a01b0316151590565b3390565b600081815260046020526040902080546001600160a01b0319166001600160a01b0384169081179091558190610f4e8261097a565b6001600160a01b03167f8c5be1e5ebec7d5bd14f71427d1e84f3dd0314c0f7b2291e5b200ac8c7c3b92560405160405180910390a45050565b6000610f9282610ef8565b610fae5760405162461bcd60e51b81526004016105fc90611e04565b6000610fb98361097a565b9050806001600160a01b0316846001600160a01b03161480610ff45750836001600160a01b0316610fe9846105d5565b6001600160a01b0316145b8061100457506110048185610d5e565b949350505050565b826001600160a01b031661101f8261097a565b6001600160a01b0316146110455760405162461bcd60e51b81526004016105fc90612064565b6001600160a01b03821661106b5760405162461bcd60e51b81526004016105fc90611d52565b61107683838361131b565b611081600082610f19565b6001600160a01b03831660009081526003602052604081208054600192906110aa908490612216565b90915550506001600160a01b03821660009081526003602052604081208054600192906110d89084906121cb565b909155505060008181526002602052604080822080546001600160a01b0319166001600160a01b0386811691821790925591518493918716917fddf252ad1be2c89b69c2b068fc378daa952ba7f163c4a11628f55a4df523b3ef91a4505050565b61089b8282604051806020016040528060008152506113a4565b600a80546001600160a01b038381166001600160a01b0319831681179093556040519116919082907f8be0079c531659141344cd1fd0a4f28419497f9722a3daafe3b4186f6b6457e090600090a35050565b6111b084848461100c565b6111bc848484846113d7565b6109745760405162461bcd60e51b81526004016105fc90611c83565b6060600b805461055290612259565b60608161120c57506040805180820190915260018152600360fc1b602082015261053e565b8160005b8115611236578061122081612294565b915061122f9050600a836121e3565b9150611210565b60008167ffffffffffffffff81111561125f57634e487b7160e01b600052604160045260246000fd5b6040519080825280601f01601f191660200182016040528015611289576020820181803683370190505b5090505b84156110045761129e600183612216565b91506112ab600a866122af565b6112b69060306121cb565b60f81b8183815181106112d957634e487b7160e01b600052603260045260246000fd5b60200101906001600160f81b031916908160001a9053506112fb600a866121e3565b945061128d565b6001600160e01b031981166301ffc9a760e01b14919050565b6113268383836106b4565b6001600160a01b0383166113425761133d816114f2565b611365565b816001600160a01b0316836001600160a01b031614611365576113658382611536565b6001600160a01b0382166113815761137c816115d3565b6106b4565b826001600160a01b0316826001600160a01b0316146106b4576106b482826116ac565b6113ae83836116f0565b6113bb60008484846113d7565b6106b45760405162461bcd60e51b81526004016105fc90611c83565b60006113eb846001600160a01b03166117cf565b156114e757836001600160a01b031663150b7a02611407610f15565b8786866040518563ffffffff1660e01b81526004016114299493929190611b80565b602060405180830381600087803b15801561144357600080fd5b505af1925050508015611473575060408051601f3d908101601f1916820190925261147091810190611a7f565b60015b6114cd573d8080156114a1576040519150601f19603f3d011682016040523d82523d6000602084013e6114a6565b606091505b5080516114c55760405162461bcd60e51b81526004016105fc90611c83565b805181602001fd5b6001600160e01b031916630a85bd0160e11b149050611004565b506001949350505050565b600880546000838152600960205260408120829055600182018355919091527ff3f7a9fe364faab93b216da50a3214154f22a0a2b415b23a84c8169e8b636ee30155565b60006001611543846109af565b61154d9190612216565b6000838152600760205260409020549091508082146115a0576001600160a01b03841660009081526006602090815260408083208584528252808320548484528184208190558352600790915290208190555b5060009182526007602090815260408084208490556001600160a01b039094168352600681528383209183525290812055565b6008546000906115e590600190612216565b6000838152600960205260408120546008805493945090928490811061161b57634e487b7160e01b600052603260045260246000fd5b90600052602060002001549050806008838154811061164a57634e487b7160e01b600052603260045260246000fd5b600091825260208083209091019290925582815260099091526040808220849055858252812055600880548061169057634e487b7160e01b600052603160045260246000fd5b6001900381819060005260206000200160009055905550505050565b60006116b7836109af565b6001600160a01b039093166000908152600660209081526040808320868452825280832085905593825260079052919091209190915550565b6001600160a01b0382166117165760405162461bcd60e51b81526004016105fc90611f77565b61171f81610ef8565b1561173c5760405162461bcd60e51b81526004016105fc90611d1b565b6117486000838361131b565b6001600160a01b03821660009081526003602052604081208054600192906117719084906121cb565b909155505060008181526002602052604080822080546001600160a01b0319166001600160a01b03861690811790915590518392907fddf252ad1be2c89b69c2b068fc378daa952ba7f163c4a11628f55a4df523b3ef908290a45050565b3b151590565b8280546117e190612259565b90600052602060002090601f0160209004810192826118035760008555611849565b82601f1061181c57805160ff1916838001178555611849565b82800160010185558215611849579182015b8281111561184957825182559160200191906001019061182e565b50611855929150611859565b5090565b5b80821115611855576000815560010161185a565b600067ffffffffffffffff80841115611889576118896122ef565b604051601f8501601f1916810160200182811182821017156118ad576118ad6122ef565b6040528481529150818385018610156118c557600080fd5b8484602083013760006020868301015250509392505050565b6000602082840312156118ef578081fd5b8135610c1081612305565b6000806040838503121561190c578081fd5b823561191781612305565b9150602083013561192781612305565b809150509250929050565b600080600060608486031215611946578081fd5b833561195181612305565b9250602084013561196181612305565b929592945050506040919091013590565b60008060008060808587031215611987578081fd5b843561199281612305565b935060208501356119a281612305565b925060408501359150606085013567ffffffffffffffff8111156119c4578182fd5b8501601f810187136119d4578182fd5b6119e38782356020840161186e565b91505092959194509250565b60008060408385031215611a01578182fd5b8235611a0c81612305565b915060208301356119278161231a565b60008060408385031215611a2e578182fd5b8235611a3981612305565b946020939093013593505050565b600060208284031215611a58578081fd5b8151610c108161231a565b600060208284031215611a74578081fd5b8135610c1081612328565b600060208284031215611a90578081fd5b8151610c1081612328565b600060208284031215611aac578081fd5b813567ffffffffffffffff811115611ac2578182fd5b8201601f81018413611ad2578182fd5b6110048482356020840161186e565b600060208284031215611af2578081fd5b5035919050565b600060208284031215611b0a578081fd5b5051919050565b60008151808452611b2981602086016020860161222d565b601f01601f19169290920160200192915050565b60008351611b4f81846020880161222d565b835190830190611b6381836020880161222d565b01949350505050565b6001600160a01b0391909116815260200190565b6001600160a01b0385811682528416602082015260408101839052608060608201819052600090611bb390830184611b11565b9695505050505050565b6001600160a01b03929092168252602082015260400190565b6020808252825182820181905260009190848201906040850190845b81811015611c0e57835183529284019291840191600101611bf2565b50909695505050505050565b901515815260200190565b600060208252610c106020830184611b11565b6020808252602b908201527f455243373231456e756d657261626c653a206f776e657220696e646578206f7560408201526a74206f6620626f756e647360a81b606082015260800190565b60208082526032908201527f4552433732313a207472616e7366657220746f206e6f6e20455243373231526560408201527131b2b4bb32b91034b6b83632b6b2b73a32b960711b606082015260800190565b60208082526026908201527f4f776e61626c653a206e6577206f776e657220697320746865207a65726f206160408201526564647265737360d01b606082015260800190565b6020808252601c908201527f4552433732313a20746f6b656e20616c7265616479206d696e74656400000000604082015260600190565b60208082526024908201527f4552433732313a207472616e7366657220746f20746865207a65726f206164646040820152637265737360e01b606082015260800190565b60208082526019908201527f4552433732313a20617070726f766520746f2063616c6c657200000000000000604082015260600190565b6020808252601b908201527f5472616e73616374696f6e20697320756e6465727072696365642e0000000000604082015260600190565b6020808252602c908201527f4552433732313a206f70657261746f7220717565727920666f72206e6f6e657860408201526b34b9ba32b73a103a37b5b2b760a11b606082015260800190565b60208082526038908201527f4552433732313a20617070726f76652063616c6c6572206973206e6f74206f7760408201527f6e6572206e6f7220617070726f76656420666f7220616c6c0000000000000000606082015260800190565b60208082526018908201527f4e6f7420656e6f75676820746f6b656e20737570706c792e0000000000000000604082015260600190565b6020808252602a908201527f4552433732313a2062616c616e636520717565727920666f7220746865207a65604082015269726f206164647265737360b01b606082015260800190565b60208082526029908201527f4552433732313a206f776e657220717565727920666f72206e6f6e657869737460408201526832b73a103a37b5b2b760b91b606082015260800190565b6020808252818101527f4552433732313a206d696e7420746f20746865207a65726f2061646472657373604082015260600190565b6020808252601b908201527f43616c6c657220697320616e6f7468657220636f6e74726163742e0000000000604082015260600190565b6020808252602c908201527f4552433732313a20617070726f76656420717565727920666f72206e6f6e657860408201526b34b9ba32b73a103a37b5b2b760a11b606082015260800190565b6020808252818101527f4f776e61626c653a2063616c6c6572206973206e6f7420746865206f776e6572604082015260600190565b60208082526029908201527f4552433732313a207472616e73666572206f6620746f6b656e2074686174206960408201526839903737ba1037bbb760b91b606082015260800190565b60208082526021908201527f4552433732313a20617070726f76616c20746f2063757272656e74206f776e656040820152603960f91b606082015260800190565b60208082526031908201527f4552433732313a207472616e736665722063616c6c6572206973206e6f74206f6040820152701ddb995c881b9bdc88185c1c1c9bdd9959607a1b606082015260800190565b6020808252602c908201527f455243373231456e756d657261626c653a20676c6f62616c20696e646578206f60408201526b7574206f6620626f756e647360a01b606082015260800190565b6020808252601d908201527f4d61782e203130204e46547320706572207472616e73616374696f6e2e000000604082015260600190565b90815260200190565b600082198211156121de576121de6122c3565b500190565b6000826121f2576121f26122d9565b500490565b6000816000190483118215151615612211576122116122c3565b500290565b600082821015612228576122286122c3565b500390565b60005b83811015612248578181015183820152602001612230565b838111156109745750506000910152565b60028104600182168061226d57607f821691505b6020821081141561228e57634e487b7160e01b600052602260045260246000fd5b50919050565b60006000198214156122a8576122a86122c3565b5060010190565b6000826122be576122be6122d9565b500690565b634e487b7160e01b600052601160045260246000fd5b634e487b7160e01b600052601260045260246000fd5b634e487b7160e01b600052604160045260246000fd5b6001600160a01b03811681146107bd57600080fd5b80151581146107bd57600080fd5b6001600160e01b0319811681146107bd57600080fdfea2646970667358221220a509b01a53986f9cc6f1c3617a6fd4d8bbb432c4bee6d7f35703db822f19ef7e64736f6c63430008000033",
  "immutableReferences": {},
  "source": "// SPDX-License-Identifier: MIT\r\n\r\npragma solidity ^0.8.0;\r\n\r\nimport \"@openzeppelin/contracts/token/ERC721/ERC721.sol\";\r\nimport \"@openzeppelin/contracts/token/ERC721/extensions/ERC721Enumerable.sol\";\r\nimport \"@openzeppelin/contracts/access/Ownable.sol\";\r\nimport \"@openzeppelin/contracts/token/ERC20/utils/SafeERC20.sol\";\r\nimport \"@openzeppelin/contracts/utils/Strings.sol\";\r\n\r\ncontract SmartContract is ERC721Enumerable, Ownable {\r\n    \r\n    using Strings for uint256;\r\n    string private _baseTokenURI;\r\n    uint256 private price;\r\n    uint256 public maxSupply = 10000;\r\n    uint256 public maxMintAmount = 10;\r\n\r\n    constructor(\r\n        string memory _initBaseURI,\r\n        uint256 _price\r\n    ) ERC721(\"Unicorn Milk Truck\", \"UNIM-TRUCK\") {\r\n        setBaseURI(_initBaseURI);\r\n        setPrice(_price);\r\n    }\r\n\r\n    // Mint a Truck\r\n    function mintTruck(address _to, uint256 _mintAmount) public payable {\r\n        require(msg.sender == tx.origin, \"Caller is another contract.\");\r\n        require(_mintAmount <= maxMintAmount, \"Max. 10 NFTs per transaction.\");\r\n        uint256 supply = totalSupply();\r\n        require(supply + _mintAmount <= maxSupply, \"Not enough token supply.\");\r\n        require(msg.value >= price * _mintAmount, \"Transaction is underpriced.\");\r\n        for (uint256 i = 1; i <= _mintAmount; i++) {\r\n            _safeMint(_to, supply + i);\r\n        }\r\n    }\r\n\r\n    function _baseURI() internal view virtual override returns (string memory) {return _baseTokenURI;}\r\n\r\n    function tokenURI(uint256 tokenId) public view virtual override returns (string memory) {\r\n        require(_exists(tokenId));\r\n        string memory currentBaseURI = _baseURI();\r\n        return bytes(currentBaseURI).length > 0\r\n            ? string(abi.encodePacked(currentBaseURI, tokenId.toString()))\r\n            : \"\";\r\n    }\r\n\r\n    function isTruckHolder(address wallet) public view returns (bool) {\r\n        return balanceOf(wallet) > 0;\r\n    }\r\n\r\n    function trucksOwnedByAddress(address wallet) public view returns (uint256[] memory) {\r\n        uint256 ownerTokenCount = balanceOf(wallet);\r\n        uint256[] memory tokenIds = new uint256[](ownerTokenCount);\r\n        for (uint256 i; i < ownerTokenCount; i++) {\r\n            tokenIds[i] = tokenOfOwnerByIndex(wallet, i);\r\n        }\r\n        return tokenIds;\r\n    }\r\n\r\n    function setBaseURI(string memory baseURI) public onlyOwner {\r\n        _baseTokenURI = baseURI;\r\n    }\r\n\r\n    function setPrice(uint256 _newPrice) public onlyOwner {\r\n        price = _newPrice;\r\n    }\r\n\r\n    function withdraw() public payable onlyOwner {\r\n        uint256 balance = address(this).balance;\r\n        require(balance > 0);\r\n        require(payable(msg.sender).send(address(this).balance));\r\n    }\r\n\r\n    function withdrawERCToken(IERC20 token) public onlyOwner {\r\n        uint256 tokenBalance = token.balanceOf(address(this));\r\n        token.transfer(msg.sender, tokenBalance);\r\n    }\r\n}",
  "sourcePath": "C:\\laragon\\www\\unimtruck-main\\contracts\\SmartContract.sol",
  "compiler": {
    "name": "solc",
    "version": "0.8.0+commit.c7dfd78e.Emscripten.clang"
  },
  "schemaVersion": "3.4.7",
  "updatedAt": "2022-09-27T15:53:08.162Z",
  "devdoc": {
    "kind": "dev",
    "methods": {
      "approve(address,uint256)": {
        "details": "See {IERC721-approve}."
      },
      "balanceOf(address)": {
        "details": "See {IERC721-balanceOf}."
      },
      "getApproved(uint256)": {
        "details": "See {IERC721-getApproved}."
      },
      "isApprovedForAll(address,address)": {
        "details": "See {IERC721-isApprovedForAll}."
      },
      "name()": {
        "details": "See {IERC721Metadata-name}."
      },
      "owner()": {
        "details": "Returns the address of the current owner."
      },
      "ownerOf(uint256)": {
        "details": "See {IERC721-ownerOf}."
      },
      "renounceOwnership()": {
        "details": "Leaves the contract without owner. It will not be possible to call `onlyOwner` functions anymore. Can only be called by the current owner. NOTE: Renouncing ownership will leave the contract without an owner, thereby removing any functionality that is only available to the owner."
      },
      "safeTransferFrom(address,address,uint256)": {
        "details": "See {IERC721-safeTransferFrom}."
      },
      "safeTransferFrom(address,address,uint256,bytes)": {
        "details": "See {IERC721-safeTransferFrom}."
      },
      "setApprovalForAll(address,bool)": {
        "details": "See {IERC721-setApprovalForAll}."
      },
      "supportsInterface(bytes4)": {
        "details": "See {IERC165-supportsInterface}."
      },
      "symbol()": {
        "details": "See {IERC721Metadata-symbol}."
      },
      "tokenByIndex(uint256)": {
        "details": "See {IERC721Enumerable-tokenByIndex}."
      },
      "tokenOfOwnerByIndex(address,uint256)": {
        "details": "See {IERC721Enumerable-tokenOfOwnerByIndex}."
      },
      "tokenURI(uint256)": {
        "details": "See {IERC721Metadata-tokenURI}."
      },
      "totalSupply()": {
        "details": "See {IERC721Enumerable-totalSupply}."
      },
      "transferFrom(address,address,uint256)": {
        "details": "See {IERC721-transferFrom}."
      },
      "transferOwnership(address)": {
        "details": "Transfers ownership of the contract to a new account (`newOwner`). Can only be called by the current owner."
      }
    },
    "version": 1
  },
  "userdoc": {
    "kind": "user",
    "methods": {},
    "version": 1
  }
}